{
  "_format": "hh-sol-artifact-1",
  "contractName": "MagicSquares",
  "sourceName": "contracts/MagicSquares.sol",
  "abi": [
    {
      "inputs": [
        {
          "internalType": "string",
          "name": "baseURI_",
          "type": "string"
        },
        {
          "internalType": "address",
          "name": "_layerZeroEndpoint",
          "type": "address"
        }
      ],
      "stateMutability": "nonpayable",
      "type": "constructor"
    },
    {
      "anonymous": false,
      "inputs": [
        {
          "indexed": true,
          "internalType": "address",
          "name": "owner",
          "type": "address"
        },
        {
          "indexed": true,
          "internalType": "address",
          "name": "approved",
          "type": "address"
        },
        {
          "indexed": true,
          "internalType": "uint256",
          "name": "tokenId",
          "type": "uint256"
        }
      ],
      "name": "Approval",
      "type": "event"
    },
    {
      "anonymous": false,
      "inputs": [
        {
          "indexed": true,
          "internalType": "address",
          "name": "owner",
          "type": "address"
        },
        {
          "indexed": true,
          "internalType": "address",
          "name": "operator",
          "type": "address"
        },
        {
          "indexed": false,
          "internalType": "bool",
          "name": "approved",
          "type": "bool"
        }
      ],
      "name": "ApprovalForAll",
      "type": "event"
    },
    {
      "anonymous": false,
      "inputs": [
        {
          "indexed": false,
          "internalType": "uint16",
          "name": "_srcChainId",
          "type": "uint16"
        },
        {
          "indexed": false,
          "internalType": "bytes",
          "name": "_srcAddress",
          "type": "bytes"
        },
        {
          "indexed": false,
          "internalType": "uint64",
          "name": "_nonce",
          "type": "uint64"
        },
        {
          "indexed": false,
          "internalType": "bytes",
          "name": "_payload",
          "type": "bytes"
        }
      ],
      "name": "MessageFailed",
      "type": "event"
    },
    {
      "anonymous": false,
      "inputs": [
        {
          "indexed": true,
          "internalType": "address",
          "name": "previousOwner",
          "type": "address"
        },
        {
          "indexed": true,
          "internalType": "address",
          "name": "newOwner",
          "type": "address"
        }
      ],
      "name": "OwnershipTransferred",
      "type": "event"
    },
    {
      "anonymous": false,
      "inputs": [
        {
          "indexed": true,
          "internalType": "address",
          "name": "from",
          "type": "address"
        },
        {
          "indexed": true,
          "internalType": "address",
          "name": "to",
          "type": "address"
        },
        {
          "indexed": true,
          "internalType": "uint256",
          "name": "tokenId",
          "type": "uint256"
        }
      ],
      "name": "Transfer",
      "type": "event"
    },
    {
      "inputs": [],
      "name": "_owner",
      "outputs": [
        {
          "internalType": "address",
          "name": "",
          "type": "address"
        }
      ],
      "stateMutability": "view",
      "type": "function"
    },
    {
      "inputs": [
        {
          "internalType": "address",
          "name": "to",
          "type": "address"
        },
        {
          "internalType": "uint256",
          "name": "tokenId",
          "type": "uint256"
        }
      ],
      "name": "approve",
      "outputs": [],
      "stateMutability": "nonpayable",
      "type": "function"
    },
    {
      "inputs": [
        {
          "internalType": "address",
          "name": "owner",
          "type": "address"
        }
      ],
      "name": "balanceOf",
      "outputs": [
        {
          "internalType": "uint256",
          "name": "",
          "type": "uint256"
        }
      ],
      "stateMutability": "view",
      "type": "function"
    },
    {
      "inputs": [],
      "name": "donate",
      "outputs": [],
      "stateMutability": "payable",
      "type": "function"
    },
    {
      "inputs": [
        {
          "internalType": "uint16",
          "name": "",
          "type": "uint16"
        },
        {
          "internalType": "bytes",
          "name": "",
          "type": "bytes"
        },
        {
          "internalType": "uint256",
          "name": "",
          "type": "uint256"
        }
      ],
      "name": "failedMessages",
      "outputs": [
        {
          "internalType": "uint256",
          "name": "payloadLength",
          "type": "uint256"
        },
        {
          "internalType": "bytes32",
          "name": "payloadHash",
          "type": "bytes32"
        }
      ],
      "stateMutability": "view",
      "type": "function"
    },
    {
      "inputs": [
        {
          "internalType": "uint256",
          "name": "tokenId",
          "type": "uint256"
        }
      ],
      "name": "getApproved",
      "outputs": [
        {
          "internalType": "address",
          "name": "",
          "type": "address"
        }
      ],
      "stateMutability": "view",
      "type": "function"
    },
    {
      "inputs": [
        {
          "internalType": "address",
          "name": "owner",
          "type": "address"
        },
        {
          "internalType": "address",
          "name": "operator",
          "type": "address"
        }
      ],
      "name": "isApprovedForAll",
      "outputs": [
        {
          "internalType": "bool",
          "name": "",
          "type": "bool"
        }
      ],
      "stateMutability": "view",
      "type": "function"
    },
    {
      "inputs": [
        {
          "internalType": "uint16",
          "name": "_srcChainId",
          "type": "uint16"
        },
        {
          "internalType": "bytes",
          "name": "_srcAddress",
          "type": "bytes"
        },
        {
          "internalType": "uint64",
          "name": "_nonce",
          "type": "uint64"
        },
        {
          "internalType": "bytes",
          "name": "_payload",
          "type": "bytes"
        }
      ],
      "name": "lzReceive",
      "outputs": [],
      "stateMutability": "nonpayable",
      "type": "function"
    },
    {
      "inputs": [
        {
          "internalType": "uint8",
          "name": "numTokens",
          "type": "uint8"
        }
      ],
      "name": "mint",
      "outputs": [],
      "stateMutability": "payable",
      "type": "function"
    },
    {
      "inputs": [],
      "name": "name",
      "outputs": [
        {
          "internalType": "string",
          "name": "",
          "type": "string"
        }
      ],
      "stateMutability": "view",
      "type": "function"
    },
    {
      "inputs": [
        {
          "internalType": "uint16",
          "name": "_srcChainId",
          "type": "uint16"
        },
        {
          "internalType": "bytes",
          "name": "_srcAddress",
          "type": "bytes"
        },
        {
          "internalType": "uint64",
          "name": "_nonce",
          "type": "uint64"
        },
        {
          "internalType": "bytes",
          "name": "_payload",
          "type": "bytes"
        }
      ],
      "name": "onLzReceive",
      "outputs": [],
      "stateMutability": "nonpayable",
      "type": "function"
    },
    {
      "inputs": [],
      "name": "owner",
      "outputs": [
        {
          "internalType": "address",
          "name": "",
          "type": "address"
        }
      ],
      "stateMutability": "view",
      "type": "function"
    },
    {
      "inputs": [
        {
          "internalType": "uint256",
          "name": "tokenId",
          "type": "uint256"
        }
      ],
      "name": "ownerOf",
      "outputs": [
        {
          "internalType": "address",
          "name": "",
          "type": "address"
        }
      ],
      "stateMutability": "view",
      "type": "function"
    },
    {
      "inputs": [
        {
          "internalType": "bool",
          "name": "_state",
          "type": "bool"
        }
      ],
      "name": "pause",
      "outputs": [],
      "stateMutability": "nonpayable",
      "type": "function"
    },
    {
      "inputs": [],
      "name": "paused",
      "outputs": [
        {
          "internalType": "bool",
          "name": "",
          "type": "bool"
        }
      ],
      "stateMutability": "view",
      "type": "function"
    },
    {
      "inputs": [],
      "name": "renounceOwnership",
      "outputs": [],
      "stateMutability": "nonpayable",
      "type": "function"
    },
    {
      "inputs": [
        {
          "internalType": "uint16",
          "name": "_srcChainId",
          "type": "uint16"
        },
        {
          "internalType": "bytes",
          "name": "_srcAddress",
          "type": "bytes"
        },
        {
          "internalType": "uint64",
          "name": "_nonce",
          "type": "uint64"
        },
        {
          "internalType": "bytes",
          "name": "_payload",
          "type": "bytes"
        }
      ],
      "name": "retryMessage",
      "outputs": [],
      "stateMutability": "payable",
      "type": "function"
    },
    {
      "inputs": [
        {
          "internalType": "address",
          "name": "from",
          "type": "address"
        },
        {
          "internalType": "address",
          "name": "to",
          "type": "address"
        },
        {
          "internalType": "uint256",
          "name": "tokenId",
          "type": "uint256"
        }
      ],
      "name": "safeTransferFrom",
      "outputs": [],
      "stateMutability": "nonpayable",
      "type": "function"
    },
    {
      "inputs": [
        {
          "internalType": "address",
          "name": "from",
          "type": "address"
        },
        {
          "internalType": "address",
          "name": "to",
          "type": "address"
        },
        {
          "internalType": "uint256",
          "name": "tokenId",
          "type": "uint256"
        },
        {
          "internalType": "bytes",
          "name": "_data",
          "type": "bytes"
        }
      ],
      "name": "safeTransferFrom",
      "outputs": [],
      "stateMutability": "nonpayable",
      "type": "function"
    },
    {
      "inputs": [
        {
          "internalType": "address",
          "name": "operator",
          "type": "address"
        },
        {
          "internalType": "bool",
          "name": "approved",
          "type": "bool"
        }
      ],
      "name": "setApprovalForAll",
      "outputs": [],
      "stateMutability": "nonpayable",
      "type": "function"
    },
    {
      "inputs": [
        {
          "internalType": "string",
          "name": "_URI",
          "type": "string"
        }
      ],
      "name": "setBaseURI",
      "outputs": [],
      "stateMutability": "nonpayable",
      "type": "function"
    },
    {
      "inputs": [
        {
          "internalType": "uint256",
          "name": "newVal",
          "type": "uint256"
        }
      ],
      "name": "setGasForDestinationLzReceive",
      "outputs": [],
      "stateMutability": "nonpayable",
      "type": "function"
    },
    {
      "inputs": [
        {
          "internalType": "uint16",
          "name": "_chainId",
          "type": "uint16"
        },
        {
          "internalType": "bytes",
          "name": "_trustedRemote",
          "type": "bytes"
        }
      ],
      "name": "setTrustedRemote",
      "outputs": [],
      "stateMutability": "nonpayable",
      "type": "function"
    },
    {
      "inputs": [
        {
          "internalType": "bytes4",
          "name": "interfaceId",
          "type": "bytes4"
        }
      ],
      "name": "supportsInterface",
      "outputs": [
        {
          "internalType": "bool",
          "name": "",
          "type": "bool"
        }
      ],
      "stateMutability": "view",
      "type": "function"
    },
    {
      "inputs": [],
      "name": "symbol",
      "outputs": [
        {
          "internalType": "string",
          "name": "",
          "type": "string"
        }
      ],
      "stateMutability": "view",
      "type": "function"
    },
    {
      "inputs": [
        {
          "internalType": "uint256",
          "name": "tokenId",
          "type": "uint256"
        }
      ],
      "name": "tokenURI",
      "outputs": [
        {
          "internalType": "string",
          "name": "",
          "type": "string"
        }
      ],
      "stateMutability": "view",
      "type": "function"
    },
    {
      "inputs": [
        {
          "internalType": "address",
          "name": "from",
          "type": "address"
        },
        {
          "internalType": "address",
          "name": "to",
          "type": "address"
        },
        {
          "internalType": "uint256",
          "name": "tokenId",
          "type": "uint256"
        }
      ],
      "name": "transferFrom",
      "outputs": [],
      "stateMutability": "nonpayable",
      "type": "function"
    },
    {
      "inputs": [
        {
          "internalType": "address",
          "name": "newOwner",
          "type": "address"
        }
      ],
      "name": "transferOwnership",
      "outputs": [],
      "stateMutability": "nonpayable",
      "type": "function"
    },
    {
      "inputs": [
        {
          "internalType": "uint16",
          "name": "_chainId",
          "type": "uint16"
        },
        {
          "internalType": "uint256",
          "name": "tokenId",
          "type": "uint256"
        }
      ],
      "name": "traverseChains",
      "outputs": [],
      "stateMutability": "payable",
      "type": "function"
    },
    {
      "inputs": [
        {
          "internalType": "uint16",
          "name": "",
          "type": "uint16"
        }
      ],
      "name": "trustedRemoteLookup",
      "outputs": [
        {
          "internalType": "bytes",
          "name": "",
          "type": "bytes"
        }
      ],
      "stateMutability": "view",
      "type": "function"
    },
    {
      "inputs": [
        {
          "internalType": "uint256",
          "name": "amt",
          "type": "uint256"
        }
      ],
      "name": "withdraw",
      "outputs": [],
      "stateMutability": "nonpayable",
      "type": "function"
    }
  ],
  "bytecode": "0x60806040526040518060600160405280603681526020016200560c60369139600b908051906020019062000035929190620002c6565b50611d20600c55612710600d5562055730600e556000600f60006101000a81548160ff0219169083151502179055503480156200007157600080fd5b50604051620056423803806200564283398181016040528101906200009791906200040b565b6040518060400160405280600c81526020017f4d616769635371756172657300000000000000000000000000000000000000008152506040518060400160405280600481526020017f4d535155000000000000000000000000000000000000000000000000000000008152506200012362000117620001fa60201b60201c565b6200020260201b60201c565b81600190805190602001906200013b929190620002c6565b50806002908051906020019062000154929190620002c6565b50505033600a60006101000a81548173ffffffffffffffffffffffffffffffffffffffff021916908373ffffffffffffffffffffffffffffffffffffffff16021790555080600760006101000a81548173ffffffffffffffffffffffffffffffffffffffff021916908373ffffffffffffffffffffffffffffffffffffffff16021790555081600b9080519060200190620001f1929190620002c6565b50505062000643565b600033905090565b60008060009054906101000a900473ffffffffffffffffffffffffffffffffffffffff169050816000806101000a81548173ffffffffffffffffffffffffffffffffffffffff021916908373ffffffffffffffffffffffffffffffffffffffff1602179055508173ffffffffffffffffffffffffffffffffffffffff168173ffffffffffffffffffffffffffffffffffffffff167f8be0079c531659141344cd1fd0a4f28419497f9722a3daafe3b4186f6b6457e060405160405180910390a35050565b828054620002d4906200053a565b90600052602060002090601f016020900481019282620002f8576000855562000344565b82601f106200031357805160ff191683800117855562000344565b8280016001018555821562000344579182015b828111156200034357825182559160200191906001019062000326565b5b50905062000353919062000357565b5090565b5b808211156200037257600081600090555060010162000358565b5090565b60006200038d62000387846200049a565b62000471565b905082815260208101848484011115620003ac57620003ab62000609565b5b620003b984828562000504565b509392505050565b600081519050620003d28162000629565b92915050565b600082601f830112620003f057620003ef62000604565b5b81516200040284826020860162000376565b91505092915050565b6000806040838503121562000425576200042462000613565b5b600083015167ffffffffffffffff8111156200044657620004456200060e565b5b6200045485828601620003d8565b92505060206200046785828601620003c1565b9150509250929050565b60006200047d62000490565b90506200048b828262000570565b919050565b6000604051905090565b600067ffffffffffffffff821115620004b857620004b7620005d5565b5b620004c38262000618565b9050602081019050919050565b6000620004dd82620004e4565b9050919050565b600073ffffffffffffffffffffffffffffffffffffffff82169050919050565b60005b838110156200052457808201518184015260208101905062000507565b8381111562000534576000848401525b50505050565b600060028204905060018216806200055357607f821691505b602082108114156200056a5762000569620005a6565b5b50919050565b6200057b8262000618565b810181811067ffffffffffffffff821117156200059d576200059c620005d5565b5b80604052505050565b7f4e487b7100000000000000000000000000000000000000000000000000000000600052602260045260246000fd5b7f4e487b7100000000000000000000000000000000000000000000000000000000600052604160045260246000fd5b600080fd5b600080fd5b600080fd5b600080fd5b6000601f19601f8301169050919050565b6200063481620004d0565b81146200064057600080fd5b50565b614fb980620006536000396000f3fe6080604052600436106101d75760003560e01c8063715018a611610102578063b88d4fde11610095578063e985e9c511610064578063e985e9c51461068d578063eb8d72b7146106ca578063ed88c68e146106f3578063f2fde38b146106fd576101d7565b8063b88d4fde146105ef578063c87b56dd14610618578063cf89fa0314610655578063d1deba1f14610671576101d7565b8063943fb872116100d1578063943fb8721461054757806395d89b4114610570578063a22cb4651461059b578063b2bdfa7b146105c4576101d7565b8063715018a61461048a5780637533d788146104a15780638da5cb5b146104de5780638ee7491214610509576101d7565b806323b872dd1161017a5780635c975abb116101495780635c975abb146103c95780636352211e146103f45780636ecd23061461043157806370a082311461044d576101d7565b806323b872dd146103255780632e1a7d4d1461034e57806342842e0e1461037757806355f804b3146103a0576101d7565b806306fdde03116101b657806306fdde031461026b578063081812fc14610296578063095ea7b3146102d35780631c37a822146102fc576101d7565b80621d3567146101dc57806301ffc9a71461020557806302329a2914610242575b600080fd5b3480156101e857600080fd5b5061020360048036038101906101fe91906133a4565b610726565b005b34801561021157600080fd5b5061022c60048036038101906102279190613161565b610968565b6040516102399190613ce9565b60405180910390f35b34801561024e57600080fd5b5061026960048036038101906102649190613134565b610a4a565b005b34801561027757600080fd5b50610280610ae3565b60405161028d9190613d26565b60405180910390f35b3480156102a257600080fd5b506102bd60048036038101906102b89190613483565b610b75565b6040516102ca9190613c59565b60405180910390f35b3480156102df57600080fd5b506102fa60048036038101906102f591906130f4565b610bfa565b005b34801561030857600080fd5b50610323600480360381019061031e91906133a4565b610d12565b005b34801561033157600080fd5b5061034c60048036038101906103479190612fde565b610d92565b005b34801561035a57600080fd5b5061037560048036038101906103709190613483565b610df2565b005b34801561038357600080fd5b5061039e60048036038101906103999190612fde565b610f40565b005b3480156103ac57600080fd5b506103c760048036038101906103c291906131bb565b610f60565b005b3480156103d557600080fd5b506103de610ff6565b6040516103eb9190613ce9565b60405180910390f35b34801561040057600080fd5b5061041b60048036038101906104169190613483565b611009565b6040516104289190613c59565b60405180910390f35b61044b600480360381019061044691906134f0565b6110bb565b005b34801561045957600080fd5b50610474600480360381019061046f9190612f31565b61123d565b6040516104819190614227565b60405180910390f35b34801561049657600080fd5b5061049f6112f5565b005b3480156104ad57600080fd5b506104c860048036038101906104c39190613204565b61137d565b6040516104d59190613d04565b60405180910390f35b3480156104ea57600080fd5b506104f361141d565b6040516105009190613c59565b60405180910390f35b34801561051557600080fd5b50610530600480360381019061052b9190613291565b611446565b60405161053e929190614242565b60405180910390f35b34801561055357600080fd5b5061056e60048036038101906105699190613483565b61149a565b005b34801561057c57600080fd5b50610585611520565b6040516105929190613d26565b60405180910390f35b3480156105a757600080fd5b506105c260048036038101906105bd91906130b4565b6115b2565b005b3480156105d057600080fd5b506105d96115c8565b6040516105e69190613c59565b60405180910390f35b3480156105fb57600080fd5b5061061660048036038101906106119190613031565b6115ee565b005b34801561062457600080fd5b5061063f600480360381019061063a9190613483565b611650565b60405161064c9190613d26565b60405180910390f35b61066f600480360381019061066a9190613443565b6116f7565b005b61068b60048036038101906106869190613300565b6119ea565b005b34801561069957600080fd5b506106b460048036038101906106af9190612f9e565b611b8a565b6040516106c19190613ce9565b60405180910390f35b3480156106d657600080fd5b506106f160048036038101906106ec9190613231565b611c1e565b005b6106fb611cca565b005b34801561070957600080fd5b50610724600480360381019061071f9190612f31565b611ccc565b005b600760009054906101000a900473ffffffffffffffffffffffffffffffffffffffff1673ffffffffffffffffffffffffffffffffffffffff163373ffffffffffffffffffffffffffffffffffffffff161461078057600080fd5b600960008561ffff1661ffff16815260200190815260200160002080546107a690614511565b905083511480156107ec5750600960008561ffff1661ffff1681526020019081526020016000206040516107da9190613bdd565b60405180910390208380519060200120145b61082b576040517f08c379a000000000000000000000000000000000000000000000000000000000815260040161082290613f48565b60405180910390fd5b3073ffffffffffffffffffffffffffffffffffffffff16631c37a822858585856040518563ffffffff1660e01b815260040161086a949392919061415e565b600060405180830381600087803b15801561088457600080fd5b505af1925050508015610895575060015b610961576040518060400160405280825181526020018280519060200120815250600860008661ffff1661ffff168152602001908152602001600020846040516108df9190613bc6565b908152602001604051809103902060008467ffffffffffffffff16815260200190815260200160002060008201518160000155602082015181600101559050507fe6f254030bcb01ffd20558175c13fcaed6d1520be7becee4c961b65f79243b0d84848484604051610954949392919061415e565b60405180910390a1610962565b5b50505050565b60007f80ac58cd000000000000000000000000000000000000000000000000000000007bffffffffffffffffffffffffffffffffffffffffffffffffffffffff1916827bffffffffffffffffffffffffffffffffffffffffffffffffffffffff19161480610a3357507f5b5e139f000000000000000000000000000000000000000000000000000000007bffffffffffffffffffffffffffffffffffffffffffffffffffffffff1916827bffffffffffffffffffffffffffffffffffffffffffffffffffffffff1916145b80610a435750610a4282611dc4565b5b9050919050565b610a52611e2e565b73ffffffffffffffffffffffffffffffffffffffff16610a7061141d565b73ffffffffffffffffffffffffffffffffffffffff1614610ac6576040517f08c379a0000000000000000000000000000000000000000000000000000000008152600401610abd90613f28565b60405180910390fd5b80600f60006101000a81548160ff02191690831515021790555050565b606060018054610af290614511565b80601f0160208091040260200160405190810160405280929190818152602001828054610b1e90614511565b8015610b6b5780601f10610b4057610100808354040283529160200191610b6b565b820191906000526020600020905b815481529060010190602001808311610b4e57829003601f168201915b5050505050905090565b6000610b8082611e36565b610bbf576040517f08c379a0000000000000000000000000000000000000000000000000000000008152600401610bb690613f08565b60405180910390fd5b6005600083815260200190815260200160002060009054906101000a900473ffffffffffffffffffffffffffffffffffffffff169050919050565b6000610c0582611009565b90508073ffffffffffffffffffffffffffffffffffffffff168373ffffffffffffffffffffffffffffffffffffffff161415610c76576040517f08c379a0000000000000000000000000000000000000000000000000000000008152600401610c6d90613fc8565b60405180910390fd5b8073ffffffffffffffffffffffffffffffffffffffff16610c95611e2e565b73ffffffffffffffffffffffffffffffffffffffff161480610cc45750610cc381610cbe611e2e565b611b8a565b5b610d03576040517f08c379a0000000000000000000000000000000000000000000000000000000008152600401610cfa90613e68565b60405180910390fd5b610d0d8383611ea2565b505050565b3073ffffffffffffffffffffffffffffffffffffffff163373ffffffffffffffffffffffffffffffffffffffff1614610d80576040517f08c379a0000000000000000000000000000000000000000000000000000000008152600401610d7790613ec8565b60405180910390fd5b610d8c84848484611f5b565b50505050565b610da3610d9d611e2e565b82611f88565b610de2576040517f08c379a0000000000000000000000000000000000000000000000000000000008152600401610dd990614008565b60405180910390fd5b610ded838383612066565b505050565b610dfa611e2e565b73ffffffffffffffffffffffffffffffffffffffff16610e1861141d565b73ffffffffffffffffffffffffffffffffffffffff1614610e6e576040517f08c379a0000000000000000000000000000000000000000000000000000000008152600401610e6590613f28565b60405180910390fd5b6000600a60009054906101000a900473ffffffffffffffffffffffffffffffffffffffff1673ffffffffffffffffffffffffffffffffffffffff1682604051610eb690613c18565b60006040518083038185875af1925050503d8060008114610ef3576040519150601f19603f3d011682016040523d82523d6000602084013e610ef8565b606091505b5050905080610f3c576040517f08c379a0000000000000000000000000000000000000000000000000000000008152600401610f3390613fe8565b60405180910390fd5b5050565b610f5b838383604051806020016040528060008152506115ee565b505050565b610f68611e2e565b73ffffffffffffffffffffffffffffffffffffffff16610f8661141d565b73ffffffffffffffffffffffffffffffffffffffff1614610fdc576040517f08c379a0000000000000000000000000000000000000000000000000000000008152600401610fd390613f28565b60405180910390fd5b80600b9080519060200190610ff2929190612c00565b5050565b600f60009054906101000a900460ff1681565b6000806003600084815260200190815260200160002060009054906101000a900473ffffffffffffffffffffffffffffffffffffffff169050600073ffffffffffffffffffffffffffffffffffffffff168173ffffffffffffffffffffffffffffffffffffffff1614156110b2576040517f08c379a00000000000000000000000000000000000000000000000000000000081526004016110a990613ea8565b60405180910390fd5b80915050919050565b600f60009054906101000a900460ff161561110b576040517f08c379a000000000000000000000000000000000000000000000000000000000815260040161110290614028565b60405180910390fd5b60026111163361123d565b10611156576040517f08c379a000000000000000000000000000000000000000000000000000000000815260040161114d90614088565b60405180910390fd5b60038160ff161061119c576040517f08c379a000000000000000000000000000000000000000000000000000000000815260040161119390614068565b60405180910390fd5b600d548160ff16600c546111b09190614355565b11156111f1576040517f08c379a00000000000000000000000000000000000000000000000000000000081526004016111e890613fa8565b60405180910390fd5b61120f33600c6000815461120490614574565b9190508190556122c2565b60028160ff16141561123a5761123933600c6000815461122e90614574565b9190508190556122c2565b5b50565b60008073ffffffffffffffffffffffffffffffffffffffff168273ffffffffffffffffffffffffffffffffffffffff1614156112ae576040517f08c379a00000000000000000000000000000000000000000000000000000000081526004016112a590613e88565b60405180910390fd5b600460008373ffffffffffffffffffffffffffffffffffffffff1673ffffffffffffffffffffffffffffffffffffffff168152602001908152602001600020549050919050565b6112fd611e2e565b73ffffffffffffffffffffffffffffffffffffffff1661131b61141d565b73ffffffffffffffffffffffffffffffffffffffff1614611371576040517f08c379a000000000000000000000000000000000000000000000000000000000815260040161136890613f28565b60405180910390fd5b61137b60006122e0565b565b6009602052806000526040600020600091509050805461139c90614511565b80601f01602080910402602001604051908101604052809291908181526020018280546113c890614511565b80156114155780601f106113ea57610100808354040283529160200191611415565b820191906000526020600020905b8154815290600101906020018083116113f857829003601f168201915b505050505081565b60008060009054906101000a900473ffffffffffffffffffffffffffffffffffffffff16905090565b60086020528260005260406000208280516020810182018051848252602083016020850120818352809550505050505060205280600052604060002060009250925050508060000154908060010154905082565b6114a2611e2e565b73ffffffffffffffffffffffffffffffffffffffff166114c061141d565b73ffffffffffffffffffffffffffffffffffffffff1614611516576040517f08c379a000000000000000000000000000000000000000000000000000000000815260040161150d90613f28565b60405180910390fd5b80600e8190555050565b60606002805461152f90614511565b80601f016020809104026020016040519081016040528092919081815260200182805461155b90614511565b80156115a85780601f1061157d576101008083540402835291602001916115a8565b820191906000526020600020905b81548152906001019060200180831161158b57829003601f168201915b5050505050905090565b6115c46115bd611e2e565b83836123a4565b5050565b600a60009054906101000a900473ffffffffffffffffffffffffffffffffffffffff1681565b6115ff6115f9611e2e565b83611f88565b61163e576040517f08c379a000000000000000000000000000000000000000000000000000000000815260040161163590614008565b60405180910390fd5b61164a84848484612511565b50505050565b606061165b82611e36565b61169a576040517f08c379a000000000000000000000000000000000000000000000000000000000815260040161169190613f88565b60405180910390fd5b60006116a461256d565b905060008151116116c457604051806020016040528060008152506116ef565b806116ce846125ff565b6040516020016116df929190613bf4565b6040516020818303038152906040525b915050919050565b61170081611009565b73ffffffffffffffffffffffffffffffffffffffff163373ffffffffffffffffffffffffffffffffffffffff161461176d576040517f08c379a000000000000000000000000000000000000000000000000000000000815260040161176490613e28565b60405180910390fd5b6000600960008461ffff1661ffff168152602001908152602001600020805461179590614511565b9050116117d7576040517f08c379a00000000000000000000000000000000000000000000000000000000081526004016117ce90613de8565b60405180910390fd5b6117e081612760565b600033826040516020016117f5929190613cc0565b6040516020818303038152906040529050600060019050600081600e54604051602001611823929190613c2d565b60405160208183030381529060405290506000600760009054906101000a900473ffffffffffffffffffffffffffffffffffffffff1673ffffffffffffffffffffffffffffffffffffffff166340a7bb108730876000876040518663ffffffff1660e01b815260040161189a9594939291906140a8565b604080518083038186803b1580156118b157600080fd5b505afa1580156118c5573d6000803e3d6000fd5b505050506040513d601f19601f820116820180604052508101906118e991906134b0565b5090508034101561192f576040517f08c379a000000000000000000000000000000000000000000000000000000000815260040161192690613d88565b60405180910390fd5b600760009054906101000a900473ffffffffffffffffffffffffffffffffffffffff1673ffffffffffffffffffffffffffffffffffffffff1663c58031003488600960008b61ffff1661ffff16815260200190815260200160002088336000896040518863ffffffff1660e01b81526004016119b0969594939291906141b1565b6000604051808303818588803b1580156119c957600080fd5b505af11580156119dd573d6000803e3d6000fd5b5050505050505050505050565b6000600860008761ffff1661ffff16815260200190815260200160002085604051611a159190613bc6565b908152602001604051809103902060008567ffffffffffffffff16815260200190815260200160002090506000801b81600101541415611a8a576040517f08c379a0000000000000000000000000000000000000000000000000000000008152600401611a8190614048565b60405180910390fd5b806000015483839050148015611aba575080600101548383604051611ab0929190613bad565b6040518091039020145b611af9576040517f08c379a0000000000000000000000000000000000000000000000000000000008152600401611af090613e08565b60405180910390fd5b600081600001819055506000801b81600101819055503073ffffffffffffffffffffffffffffffffffffffff16631c37a82287878787876040518663ffffffff1660e01b8152600401611b50959493929190614109565b600060405180830381600087803b158015611b6a57600080fd5b505af1158015611b7e573d6000803e3d6000fd5b50505050505050505050565b6000600660008473ffffffffffffffffffffffffffffffffffffffff1673ffffffffffffffffffffffffffffffffffffffff16815260200190815260200160002060008373ffffffffffffffffffffffffffffffffffffffff1673ffffffffffffffffffffffffffffffffffffffff16815260200190815260200160002060009054906101000a900460ff16905092915050565b611c26611e2e565b73ffffffffffffffffffffffffffffffffffffffff16611c4461141d565b73ffffffffffffffffffffffffffffffffffffffff1614611c9a576040517f08c379a0000000000000000000000000000000000000000000000000000000008152600401611c9190613f28565b60405180910390fd5b8181600960008661ffff1661ffff1681526020019081526020016000209190611cc4929190612c86565b50505050565b565b611cd4611e2e565b73ffffffffffffffffffffffffffffffffffffffff16611cf261141d565b73ffffffffffffffffffffffffffffffffffffffff1614611d48576040517f08c379a0000000000000000000000000000000000000000000000000000000008152600401611d3f90613f28565b60405180910390fd5b600073ffffffffffffffffffffffffffffffffffffffff168173ffffffffffffffffffffffffffffffffffffffff161415611db8576040517f08c379a0000000000000000000000000000000000000000000000000000000008152600401611daf90613d68565b60405180910390fd5b611dc1816122e0565b50565b60007f01ffc9a7000000000000000000000000000000000000000000000000000000007bffffffffffffffffffffffffffffffffffffffffffffffffffffffff1916827bffffffffffffffffffffffffffffffffffffffffffffffffffffffff1916149050919050565b600033905090565b60008073ffffffffffffffffffffffffffffffffffffffff166003600084815260200190815260200160002060009054906101000a900473ffffffffffffffffffffffffffffffffffffffff1673ffffffffffffffffffffffffffffffffffffffff1614159050919050565b816005600083815260200190815260200160002060006101000a81548173ffffffffffffffffffffffffffffffffffffffff021916908373ffffffffffffffffffffffffffffffffffffffff160217905550808273ffffffffffffffffffffffffffffffffffffffff16611f1583611009565b73ffffffffffffffffffffffffffffffffffffffff167f8c5be1e5ebec7d5bd14f71427d1e84f3dd0314c0f7b2291e5b200ac8c7c3b92560405160405180910390a45050565b60008082806020019051810190611f729190612f5e565b91509150611f8082826122c2565b505050505050565b6000611f9382611e36565b611fd2576040517f08c379a0000000000000000000000000000000000000000000000000000000008152600401611fc990613e48565b60405180910390fd5b6000611fdd83611009565b90508073ffffffffffffffffffffffffffffffffffffffff168473ffffffffffffffffffffffffffffffffffffffff16148061204c57508373ffffffffffffffffffffffffffffffffffffffff1661203484610b75565b73ffffffffffffffffffffffffffffffffffffffff16145b8061205d575061205c8185611b8a565b5b91505092915050565b8273ffffffffffffffffffffffffffffffffffffffff1661208682611009565b73ffffffffffffffffffffffffffffffffffffffff16146120dc576040517f08c379a00000000000000000000000000000000000000000000000000000000081526004016120d390613f68565b60405180910390fd5b600073ffffffffffffffffffffffffffffffffffffffff168273ffffffffffffffffffffffffffffffffffffffff16141561214c576040517f08c379a000000000000000000000000000000000000000000000000000000000815260040161214390613da8565b60405180910390fd5b612157838383612871565b612162600082611ea2565b6001600460008573ffffffffffffffffffffffffffffffffffffffff1673ffffffffffffffffffffffffffffffffffffffff16815260200190815260200160002060008282546121b291906143dc565b925050819055506001600460008473ffffffffffffffffffffffffffffffffffffffff1673ffffffffffffffffffffffffffffffffffffffff16815260200190815260200160002060008282546122099190614355565b92505081905550816003600083815260200190815260200160002060006101000a81548173ffffffffffffffffffffffffffffffffffffffff021916908373ffffffffffffffffffffffffffffffffffffffff160217905550808273ffffffffffffffffffffffffffffffffffffffff168473ffffffffffffffffffffffffffffffffffffffff167fddf252ad1be2c89b69c2b068fc378daa952ba7f163c4a11628f55a4df523b3ef60405160405180910390a4505050565b6122dc828260405180602001604052806000815250612876565b5050565b60008060009054906101000a900473ffffffffffffffffffffffffffffffffffffffff169050816000806101000a81548173ffffffffffffffffffffffffffffffffffffffff021916908373ffffffffffffffffffffffffffffffffffffffff1602179055508173ffffffffffffffffffffffffffffffffffffffff168173ffffffffffffffffffffffffffffffffffffffff167f8be0079c531659141344cd1fd0a4f28419497f9722a3daafe3b4186f6b6457e060405160405180910390a35050565b8173ffffffffffffffffffffffffffffffffffffffff168373ffffffffffffffffffffffffffffffffffffffff161415612413576040517f08c379a000000000000000000000000000000000000000000000000000000000815260040161240a90613dc8565b60405180910390fd5b80600660008573ffffffffffffffffffffffffffffffffffffffff1673ffffffffffffffffffffffffffffffffffffffff16815260200190815260200160002060008473ffffffffffffffffffffffffffffffffffffffff1673ffffffffffffffffffffffffffffffffffffffff16815260200190815260200160002060006101000a81548160ff0219169083151502179055508173ffffffffffffffffffffffffffffffffffffffff168373ffffffffffffffffffffffffffffffffffffffff167f17307eab39ab6107e8899845ad3d59bd9653f200f220920489ca2b5937696c31836040516125049190613ce9565b60405180910390a3505050565b61251c848484612066565b612528848484846128d1565b612567576040517f08c379a000000000000000000000000000000000000000000000000000000000815260040161255e90613d48565b60405180910390fd5b50505050565b6060600b805461257c90614511565b80601f01602080910402602001604051908101604052809291908181526020018280546125a890614511565b80156125f55780601f106125ca576101008083540402835291602001916125f5565b820191906000526020600020905b8154815290600101906020018083116125d857829003601f168201915b5050505050905090565b60606000821415612647576040518060400160405280600181526020017f3000000000000000000000000000000000000000000000000000000000000000815250905061275b565b600082905060005b6000821461267957808061266290614574565b915050600a8261267291906143ab565b915061264f565b60008167ffffffffffffffff811115612695576126946146c6565b5b6040519080825280601f01601f1916602001820160405280156126c75781602001600182028036833780820191505090505b5090505b60008514612754576001826126e091906143dc565b9150600a856126ef91906145d9565b60306126fb9190614355565b60f81b81838151811061271157612710614697565b5b60200101907effffffffffffffffffffffffffffffffffffffffffffffffffffffffffffff1916908160001a905350600a8561274d91906143ab565b94506126cb565b8093505050505b919050565b600061276b82611009565b905061277981600084612871565b612784600083611ea2565b6001600460008373ffffffffffffffffffffffffffffffffffffffff1673ffffffffffffffffffffffffffffffffffffffff16815260200190815260200160002060008282546127d491906143dc565b925050819055506003600083815260200190815260200160002060006101000a81549073ffffffffffffffffffffffffffffffffffffffff021916905581600073ffffffffffffffffffffffffffffffffffffffff168273ffffffffffffffffffffffffffffffffffffffff167fddf252ad1be2c89b69c2b068fc378daa952ba7f163c4a11628f55a4df523b3ef60405160405180910390a45050565b505050565b6128808383612a68565b61288d60008484846128d1565b6128cc576040517f08c379a00000000000000000000000000000000000000000000000000000000081526004016128c390613d48565b60405180910390fd5b505050565b60006128f28473ffffffffffffffffffffffffffffffffffffffff16612bed565b15612a5b578373ffffffffffffffffffffffffffffffffffffffff1663150b7a0261291b611e2e565b8786866040518563ffffffff1660e01b815260040161293d9493929190613c74565b602060405180830381600087803b15801561295757600080fd5b505af192505050801561298857506040513d601f19601f82011682018060405250810190612985919061318e565b60015b612a0b573d80600081146129b8576040519150601f19603f3d011682016040523d82523d6000602084013e6129bd565b606091505b50600081511415612a03576040517f08c379a00000000000000000000000000000000000000000000000000000000081526004016129fa90613d48565b60405180910390fd5b805181602001fd5b63150b7a0260e01b7bffffffffffffffffffffffffffffffffffffffffffffffffffffffff1916817bffffffffffffffffffffffffffffffffffffffffffffffffffffffff191614915050612a60565b600190505b949350505050565b600073ffffffffffffffffffffffffffffffffffffffff168273ffffffffffffffffffffffffffffffffffffffff161415612ad8576040517f08c379a0000000000000000000000000000000000000000000000000000000008152600401612acf90613ee8565b60405180910390fd5b612ae460008383612871565b6001600460008473ffffffffffffffffffffffffffffffffffffffff1673ffffffffffffffffffffffffffffffffffffffff1681526020019081526020016000206000828254612b349190614355565b92505081905550816003600083815260200190815260200160002060006101000a81548173ffffffffffffffffffffffffffffffffffffffff021916908373ffffffffffffffffffffffffffffffffffffffff160217905550808273ffffffffffffffffffffffffffffffffffffffff16600073ffffffffffffffffffffffffffffffffffffffff167fddf252ad1be2c89b69c2b068fc378daa952ba7f163c4a11628f55a4df523b3ef60405160405180910390a45050565b600080823b905060008111915050919050565b828054612c0c90614511565b90600052602060002090601f016020900481019282612c2e5760008555612c75565b82601f10612c4757805160ff1916838001178555612c75565b82800160010185558215612c75579182015b82811115612c74578251825591602001919060010190612c59565b5b509050612c829190612d0c565b5090565b828054612c9290614511565b90600052602060002090601f016020900481019282612cb45760008555612cfb565b82601f10612ccd57803560ff1916838001178555612cfb565b82800160010185558215612cfb579182015b82811115612cfa578235825591602001919060010190612cdf565b5b509050612d089190612d0c565b5090565b5b80821115612d25576000816000905550600101612d0d565b5090565b6000612d3c612d3784614290565b61426b565b905082815260208101848484011115612d5857612d57614704565b5b612d638482856144cf565b509392505050565b6000612d7e612d79846142c1565b61426b565b905082815260208101848484011115612d9a57612d99614704565b5b612da58482856144cf565b509392505050565b600081359050612dbc81614ecb565b92915050565b600081519050612dd181614ee2565b92915050565b600081359050612de681614ef9565b92915050565b600081359050612dfb81614f10565b92915050565b600081519050612e1081614f10565b92915050565b60008083601f840112612e2c57612e2b6146fa565b5b8235905067ffffffffffffffff811115612e4957612e486146f5565b5b602083019150836001820283011115612e6557612e646146ff565b5b9250929050565b600082601f830112612e8157612e806146fa565b5b8135612e91848260208601612d29565b91505092915050565b600082601f830112612eaf57612eae6146fa565b5b8135612ebf848260208601612d6b565b91505092915050565b600081359050612ed781614f27565b92915050565b600081359050612eec81614f3e565b92915050565b600081519050612f0181614f3e565b92915050565b600081359050612f1681614f55565b92915050565b600081359050612f2b81614f6c565b92915050565b600060208284031215612f4757612f4661470e565b5b6000612f5584828501612dad565b91505092915050565b60008060408385031215612f7557612f7461470e565b5b6000612f8385828601612dc2565b9250506020612f9485828601612ef2565b9150509250929050565b60008060408385031215612fb557612fb461470e565b5b6000612fc385828601612dad565b9250506020612fd485828601612dad565b9150509250929050565b600080600060608486031215612ff757612ff661470e565b5b600061300586828701612dad565b935050602061301686828701612dad565b925050604061302786828701612edd565b9150509250925092565b6000806000806080858703121561304b5761304a61470e565b5b600061305987828801612dad565b945050602061306a87828801612dad565b935050604061307b87828801612edd565b925050606085013567ffffffffffffffff81111561309c5761309b614709565b5b6130a887828801612e6c565b91505092959194509250565b600080604083850312156130cb576130ca61470e565b5b60006130d985828601612dad565b92505060206130ea85828601612dd7565b9150509250929050565b6000806040838503121561310b5761310a61470e565b5b600061311985828601612dad565b925050602061312a85828601612edd565b9150509250929050565b60006020828403121561314a5761314961470e565b5b600061315884828501612dd7565b91505092915050565b6000602082840312156131775761317661470e565b5b600061318584828501612dec565b91505092915050565b6000602082840312156131a4576131a361470e565b5b60006131b284828501612e01565b91505092915050565b6000602082840312156131d1576131d061470e565b5b600082013567ffffffffffffffff8111156131ef576131ee614709565b5b6131fb84828501612e9a565b91505092915050565b60006020828403121561321a5761321961470e565b5b600061322884828501612ec8565b91505092915050565b60008060006040848603121561324a5761324961470e565b5b600061325886828701612ec8565b935050602084013567ffffffffffffffff81111561327957613278614709565b5b61328586828701612e16565b92509250509250925092565b6000806000606084860312156132aa576132a961470e565b5b60006132b886828701612ec8565b935050602084013567ffffffffffffffff8111156132d9576132d8614709565b5b6132e586828701612e6c565b92505060406132f686828701612edd565b9150509250925092565b60008060008060006080868803121561331c5761331b61470e565b5b600061332a88828901612ec8565b955050602086013567ffffffffffffffff81111561334b5761334a614709565b5b61335788828901612e6c565b945050604061336888828901612f07565b935050606086013567ffffffffffffffff81111561338957613388614709565b5b61339588828901612e16565b92509250509295509295909350565b600080600080608085870312156133be576133bd61470e565b5b60006133cc87828801612ec8565b945050602085013567ffffffffffffffff8111156133ed576133ec614709565b5b6133f987828801612e6c565b935050604061340a87828801612f07565b925050606085013567ffffffffffffffff81111561342b5761342a614709565b5b61343787828801612e6c565b91505092959194509250565b6000806040838503121561345a5761345961470e565b5b600061346885828601612ec8565b925050602061347985828601612edd565b9150509250929050565b6000602082840312156134995761349861470e565b5b60006134a784828501612edd565b91505092915050565b600080604083850312156134c7576134c661470e565b5b60006134d585828601612ef2565b92505060206134e685828601612ef2565b9150509250929050565b6000602082840312156135065761350561470e565b5b600061351484828501612f1c565b91505092915050565b61352681614422565b82525050565b61353581614410565b82525050565b61354481614434565b82525050565b61355381614440565b82525050565b6000613565838561431d565b93506135728385846144cf565b61357b83614713565b840190509392505050565b6000613592838561432e565b935061359f8385846144cf565b82840190509392505050565b60006135b682614307565b6135c0818561431d565b93506135d08185602086016144de565b6135d981614713565b840191505092915050565b60006135ef82614307565b6135f9818561432e565b93506136098185602086016144de565b80840191505092915050565b6000815461362281614511565b61362c818661431d565b9450600182166000811461364757600181146136595761368c565b60ff198316865260208601935061368c565b613662856142f2565b60005b8381101561368457815481890152600182019150602081019050613665565b808801955050505b50505092915050565b600081546136a281614511565b6136ac818661432e565b945060018216600081146136c757600181146136d85761370b565b60ff1983168652818601935061370b565b6136e1856142f2565b60005b83811015613703578154818901526001820191506020810190506136e4565b838801955050505b50505092915050565b600061371f82614312565b6137298185614339565b93506137398185602086016144de565b61374281614713565b840191505092915050565b600061375882614312565b613762818561434a565b93506137728185602086016144de565b80840191505092915050565b600061378b603283614339565b915061379682614731565b604082019050919050565b60006137ae602683614339565b91506137b982614780565b604082019050919050565b60006137d1605283614339565b91506137dc826147cf565b606082019050919050565b60006137f4602483614339565b91506137ff82614844565b604082019050919050565b6000613817601983614339565b915061382282614893565b602082019050919050565b600061383a602e83614339565b9150613845826148bc565b604082019050919050565b600061385d601a83614339565b91506138688261490b565b602082019050919050565b6000613880602283614339565b915061388b82614934565b604082019050919050565b60006138a3602c83614339565b91506138ae82614983565b604082019050919050565b60006138c6603883614339565b91506138d1826149d2565b604082019050919050565b60006138e9602a83614339565b91506138f482614a21565b604082019050919050565b600061390c602983614339565b915061391782614a70565b604082019050919050565b600061392f602b83614339565b915061393a82614abf565b604082019050919050565b6000613952602083614339565b915061395d82614b0e565b602082019050919050565b6000613975602c83614339565b915061398082614b37565b604082019050919050565b6000613998602083614339565b91506139a382614b86565b602082019050919050565b60006139bb603483614339565b91506139c682614baf565b604082019050919050565b60006139de602983614339565b91506139e982614bfe565b604082019050919050565b6000613a01602f83614339565b9150613a0c82614c4d565b604082019050919050565b6000613a24602283614339565b9150613a2f82614c9c565b604082019050919050565b6000613a47602183614339565b9150613a5282614ceb565b604082019050919050565b6000613a6a602183614339565b9150613a7582614d3a565b604082019050919050565b6000613a8d60008361432e565b9150613a9882614d89565b600082019050919050565b6000613ab0603183614339565b9150613abb82614d8c565b604082019050919050565b6000613ad3601b83614339565b9150613ade82614ddb565b602082019050919050565b6000613af6602683614339565b9150613b0182614e04565b604082019050919050565b6000613b19602983614339565b9150613b2482614e53565b604082019050919050565b6000613b3c602083614339565b9150613b4782614ea2565b602082019050919050565b613b5b81614476565b82525050565b613b72613b6d82614476565b6145bd565b82525050565b613b81816144a4565b82525050565b613b98613b93826144a4565b6145cf565b82525050565b613ba7816144ae565b82525050565b6000613bba828486613586565b91508190509392505050565b6000613bd282846135e4565b915081905092915050565b6000613be98284613695565b915081905092915050565b6000613c00828561374d565b9150613c0c828461374d565b91508190509392505050565b6000613c2382613a80565b9150819050919050565b6000613c398285613b61565b600282019150613c498284613b87565b6020820191508190509392505050565b6000602082019050613c6e600083018461352c565b92915050565b6000608082019050613c89600083018761352c565b613c96602083018661352c565b613ca36040830185613b78565b8181036060830152613cb581846135ab565b905095945050505050565b6000604082019050613cd5600083018561352c565b613ce26020830184613b78565b9392505050565b6000602082019050613cfe600083018461353b565b92915050565b60006020820190508181036000830152613d1e81846135ab565b905092915050565b60006020820190508181036000830152613d408184613714565b905092915050565b60006020820190508181036000830152613d618161377e565b9050919050565b60006020820190508181036000830152613d81816137a1565b9050919050565b60006020820190508181036000830152613da1816137c4565b9050919050565b60006020820190508181036000830152613dc1816137e7565b9050919050565b60006020820190508181036000830152613de18161380a565b9050919050565b60006020820190508181036000830152613e018161382d565b9050919050565b60006020820190508181036000830152613e2181613850565b9050919050565b60006020820190508181036000830152613e4181613873565b9050919050565b60006020820190508181036000830152613e6181613896565b9050919050565b60006020820190508181036000830152613e81816138b9565b9050919050565b60006020820190508181036000830152613ea1816138dc565b9050919050565b60006020820190508181036000830152613ec1816138ff565b9050919050565b60006020820190508181036000830152613ee181613922565b9050919050565b60006020820190508181036000830152613f0181613945565b9050919050565b60006020820190508181036000830152613f2181613968565b9050919050565b60006020820190508181036000830152613f418161398b565b9050919050565b60006020820190508181036000830152613f61816139ae565b9050919050565b60006020820190508181036000830152613f81816139d1565b9050919050565b60006020820190508181036000830152613fa1816139f4565b9050919050565b60006020820190508181036000830152613fc181613a17565b9050919050565b60006020820190508181036000830152613fe181613a3a565b9050919050565b6000602082019050818103600083015261400181613a5d565b9050919050565b6000602082019050818103600083015261402181613aa3565b9050919050565b6000602082019050818103600083015261404181613ac6565b9050919050565b6000602082019050818103600083015261406181613ae9565b9050919050565b6000602082019050818103600083015261408181613b0c565b9050919050565b600060208201905081810360008301526140a181613b2f565b9050919050565b600060a0820190506140bd6000830188613b52565b6140ca602083018761352c565b81810360408301526140dc81866135ab565b90506140eb606083018561353b565b81810360808301526140fd81846135ab565b90509695505050505050565b600060808201905061411e6000830188613b52565b818103602083015261413081876135ab565b905061413f6040830186613b9e565b8181036060830152614152818486613559565b90509695505050505050565b60006080820190506141736000830187613b52565b818103602083015261418581866135ab565b90506141946040830185613b9e565b81810360608301526141a681846135ab565b905095945050505050565b600060c0820190506141c66000830189613b52565b81810360208301526141d88188613615565b905081810360408301526141ec81876135ab565b90506141fb606083018661351d565b614208608083018561352c565b81810360a083015261421a81846135ab565b9050979650505050505050565b600060208201905061423c6000830184613b78565b92915050565b60006040820190506142576000830185613b78565b614264602083018461354a565b9392505050565b6000614275614286565b90506142818282614543565b919050565b6000604051905090565b600067ffffffffffffffff8211156142ab576142aa6146c6565b5b6142b482614713565b9050602081019050919050565b600067ffffffffffffffff8211156142dc576142db6146c6565b5b6142e582614713565b9050602081019050919050565b60008190508160005260206000209050919050565b600081519050919050565b600081519050919050565b600082825260208201905092915050565b600081905092915050565b600082825260208201905092915050565b600081905092915050565b6000614360826144a4565b915061436b836144a4565b9250827fffffffffffffffffffffffffffffffffffffffffffffffffffffffffffffffff038211156143a05761439f61460a565b5b828201905092915050565b60006143b6826144a4565b91506143c1836144a4565b9250826143d1576143d0614639565b5b828204905092915050565b60006143e7826144a4565b91506143f2836144a4565b9250828210156144055761440461460a565b5b828203905092915050565b600061441b82614484565b9050919050565b600061442d82614484565b9050919050565b60008115159050919050565b6000819050919050565b60007fffffffff0000000000000000000000000000000000000000000000000000000082169050919050565b600061ffff82169050919050565b600073ffffffffffffffffffffffffffffffffffffffff82169050919050565b6000819050919050565b600067ffffffffffffffff82169050919050565b600060ff82169050919050565b82818337600083830152505050565b60005b838110156144fc5780820151818401526020810190506144e1565b8381111561450b576000848401525b50505050565b6000600282049050600182168061452957607f821691505b6020821081141561453d5761453c614668565b5b50919050565b61454c82614713565b810181811067ffffffffffffffff8211171561456b5761456a6146c6565b5b80604052505050565b600061457f826144a4565b91507fffffffffffffffffffffffffffffffffffffffffffffffffffffffffffffffff8214156145b2576145b161460a565b5b600182019050919050565b60006145c882614724565b9050919050565b6000819050919050565b60006145e4826144a4565b91506145ef836144a4565b9250826145ff576145fe614639565b5b828206905092915050565b7f4e487b7100000000000000000000000000000000000000000000000000000000600052601160045260246000fd5b7f4e487b7100000000000000000000000000000000000000000000000000000000600052601260045260246000fd5b7f4e487b7100000000000000000000000000000000000000000000000000000000600052602260045260246000fd5b7f4e487b7100000000000000000000000000000000000000000000000000000000600052603260045260246000fd5b7f4e487b7100000000000000000000000000000000000000000000000000000000600052604160045260246000fd5b600080fd5b600080fd5b600080fd5b600080fd5b600080fd5b600080fd5b6000601f19601f8301169050919050565b60008160f01b9050919050565b7f4552433732313a207472616e7366657220746f206e6f6e20455243373231526560008201527f63656976657220696d706c656d656e7465720000000000000000000000000000602082015250565b7f4f776e61626c653a206e6577206f776e657220697320746865207a65726f206160008201527f6464726573730000000000000000000000000000000000000000000000000000602082015250565b7f4d6167696320537175617265733a206d73672e76616c7565206e6f7420656e6f60008201527f75676820746f20636f766572206d6573736167654665652e2053656e6420676160208201527f7320666f72206d65737361676520666565730000000000000000000000000000604082015250565b7f4552433732313a207472616e7366657220746f20746865207a65726f2061646460008201527f7265737300000000000000000000000000000000000000000000000000000000602082015250565b7f4552433732313a20617070726f766520746f2063616c6c657200000000000000600082015250565b7f5468697320636861696e2069732063757272656e746c7920756e617661696c6160008201527f626c6520666f722074726176656c000000000000000000000000000000000000602082015250565b7f4c617965725a65726f3a20696e76616c6964207061796c6f6164000000000000600082015250565b7f596f75206d757374206f776e2074686520746f6b656e20746f2074726176657260008201527f7365000000000000000000000000000000000000000000000000000000000000602082015250565b7f4552433732313a206f70657261746f7220717565727920666f72206e6f6e657860008201527f697374656e7420746f6b656e0000000000000000000000000000000000000000602082015250565b7f4552433732313a20617070726f76652063616c6c6572206973206e6f74206f7760008201527f6e6572206e6f7220617070726f76656420666f7220616c6c0000000000000000602082015250565b7f4552433732313a2062616c616e636520717565727920666f7220746865207a6560008201527f726f206164647265737300000000000000000000000000000000000000000000602082015250565b7f4552433732313a206f776e657220717565727920666f72206e6f6e657869737460008201527f656e7420746f6b656e0000000000000000000000000000000000000000000000602082015250565b7f4e6f6e626c6f636b696e6752656365697665723a2063616c6c6572206d75737460008201527f206265204272696467652e000000000000000000000000000000000000000000602082015250565b7f4552433732313a206d696e7420746f20746865207a65726f2061646472657373600082015250565b7f4552433732313a20617070726f76656420717565727920666f72206e6f6e657860008201527f697374656e7420746f6b656e0000000000000000000000000000000000000000602082015250565b7f4f776e61626c653a2063616c6c6572206973206e6f7420746865206f776e6572600082015250565b7f4e6f6e626c6f636b696e6752656365697665723a20696e76616c696420736f7560008201527f7263652073656e64696e6720636f6e7472616374000000000000000000000000602082015250565b7f4552433732313a207472616e73666572206f6620746f6b656e2074686174206960008201527f73206e6f74206f776e0000000000000000000000000000000000000000000000602082015250565b7f4552433732314d657461646174613a2055524920717565727920666f72206e6f60008201527f6e6578697374656e7420746f6b656e0000000000000000000000000000000000602082015250565b7f4d6167696320537175617265733a204d696e742065786365656473207375707060008201527f6c79000000000000000000000000000000000000000000000000000000000000602082015250565b7f4552433732313a20617070726f76616c20746f2063757272656e74206f776e6560008201527f7200000000000000000000000000000000000000000000000000000000000000602082015250565b7f4d6167696320537175617265733a204661696c656420746f207769746864726160008201527f7700000000000000000000000000000000000000000000000000000000000000602082015250565b50565b7f4552433732313a207472616e736665722063616c6c6572206973206e6f74206f60008201527f776e6572206e6f7220617070726f766564000000000000000000000000000000602082015250565b7f53616c65206861736e2774206e6f742073746172746564207965740000000000600082015250565b7f4e6f6e626c6f636b696e6752656365697665723a206e6f2073746f726564206d60008201527f6573736167650000000000000000000000000000000000000000000000000000602082015250565b7f4d6167696320537175617265733a204d61782032204e4654732070657220747260008201527f616e73616374696f6e0000000000000000000000000000000000000000000000602082015250565b7f456163682061646472657373206d6179206f6e6c79206f776e2032204e465473600082015250565b614ed481614410565b8114614edf57600080fd5b50565b614eeb81614422565b8114614ef657600080fd5b50565b614f0281614434565b8114614f0d57600080fd5b50565b614f198161444a565b8114614f2457600080fd5b50565b614f3081614476565b8114614f3b57600080fd5b50565b614f47816144a4565b8114614f5257600080fd5b50565b614f5e816144ae565b8114614f6957600080fd5b50565b614f75816144c2565b8114614f8057600080fd5b5056fea2646970667358221220588f3aceeca1b4ac155e4f7b0b04d63b8a054e809718898d453315619056112864736f6c63430008070033697066733a2f2f516d52796a4d447136426b6b4e7943474145556b7a4e467777735163507867474e6a5a3357386976736947554a712f",
  "linkReferences": {},
  "deployedLinkReferences": {}
}